{
  "contractName": "Neo",
  "abi": [
    {
      "constant": true,
      "inputs": [],
      "name": "health",
      "outputs": [
        {
          "name": "",
          "type": "uint256"
        }
      ],
      "payable": false,
      "stateMutability": "view",
      "type": "function"
    },
    {
      "payable": false,
      "stateMutability": "nonpayable",
      "type": "fallback"
    },
    {
      "constant": false,
      "inputs": [
        {
          "name": "value",
          "type": "uint8"
        }
      ],
      "name": "obtainDamage",
      "outputs": [],
      "payable": false,
      "stateMutability": "nonpayable",
      "type": "function"
    }
  ],
  "bytecode": "0x6080604052606460005534801561001557600080fd5b50610185806100256000396000f30060806040526004361061004c576000357c0100000000000000000000000000000000000000000000000000000000900463ffffffff1680631f26cd3a146100e35780637633a22c14610113575b34801561005857600080fd5b503373ffffffffffffffffffffffffffffffffffffffff16637366f92960646040518263ffffffff167c010000000000000000000000000000000000000000000000000000000002815260040180828152602001915050600060405180830381600087803b1580156100c957600080fd5b505af11580156100dd573d6000803e3d6000fd5b50505050005b3480156100ef57600080fd5b50610111600480360381019080803560ff16906020019092919050505061013e565b005b34801561011f57600080fd5b50610128610153565b6040518082815260200191505060405180910390f35b8060ff16600080828254039250508190555050565b600054815600a165627a7a72305820fc87c1fe3ba56f372f37be21dd565b1f900df0c062b34450720f84de2d7e6b790029",
  "source": "pragma solidity ^0.4.23;\n\ncontract Smith {\n    function obtainDamage (uint256 value) public;\n}\n\ncontract Neo {\n    \n    uint public health = 100;\n\n    function() public {\n        Smith(msg.sender).obtainDamage(100); // calling Smith contract\n    }\n\n    function obtainDamage(uint8 value) public {\n        health -= value;\n    }\n\n}",
  "sourcePath": "/var/www/html/truffle/ethsec/type-confusion/contracts/Neo.sol",
  "compiler": {
    "name": "solc",
    "version": "0.4.24+commit.e67f0147.Emscripten.clang"
  },
  "schemaVersion": "2.0.0",
  "updatedAt": "2018-06-08T13:58:05.758Z"
}