{
  "contractName": "Uninitialized",
  "abi": [
    {
      "constant": true,
      "inputs": [],
      "name": "owner",
      "outputs": [
        {
          "name": "",
          "type": "address"
        }
      ],
      "payable": false,
      "stateMutability": "view",
      "type": "function"
    },
    {
      "constant": true,
      "inputs": [],
      "name": "balance",
      "outputs": [
        {
          "name": "",
          "type": "uint256"
        }
      ],
      "payable": false,
      "stateMutability": "view",
      "type": "function"
    },
    {
      "constant": false,
      "inputs": [
        {
          "name": "_where",
          "type": "address"
        }
      ],
      "name": "rewriteOwner",
      "outputs": [],
      "payable": false,
      "stateMutability": "nonpayable",
      "type": "function"
    },
    {
      "constant": false,
      "inputs": [
        {
          "name": "s",
          "type": "bytes"
        }
      ],
      "name": "rewriteBoth",
      "outputs": [],
      "payable": false,
      "stateMutability": "nonpayable",
      "type": "function"
    }
  ],
  "bytecode": "0x608060405234801561001057600080fd5b506102f3806100206000396000f300608060405260043610610062576000357c0100000000000000000000000000000000000000000000000000000000900463ffffffff168063127db7b4146100675780638da5cb5b146100aa578063b69ef8a814610101578063f71cdc7c1461012c575b600080fd5b34801561007357600080fd5b506100a8600480360381019080803573ffffffffffffffffffffffffffffffffffffffff169060200190929190505050610195565b005b3480156100b657600080fd5b506100bf6101de565b604051808273ffffffffffffffffffffffffffffffffffffffff1673ffffffffffffffffffffffffffffffffffffffff16815260200191505060405180910390f35b34801561010d57600080fd5b50610116610203565b6040518082815260200191505060405180910390f35b34801561013857600080fd5b50610193600480360381019080803590602001908201803590602001908080601f0160208091040260200160405190810160405280939291908181526020018383808284378201915050505050509192919290505050610209565b005b6000818160000160006101000a81548173ffffffffffffffffffffffffffffffffffffffff021916908373ffffffffffffffffffffffffffffffffffffffff1602179055505050565b6000809054906101000a900473ffffffffffffffffffffffffffffffffffffffff1681565b60015481565b600080600090505b60408160ff1610156102c257828160ff1681518110151561022e57fe5b9060200101517f010000000000000000000000000000000000000000000000000000000000000090047f0100000000000000000000000000000000000000000000000000000000000000027f0100000000000000000000000000000000000000000000000000000000000000900460ff16828260ff166040811015156102b057fe5b01819055508080600101915050610211565b5050505600a165627a7a72305820b27909748f4b37b7f2609dd36f10c2fbec7e5409d64f6c753e98f465374db53f0029",
  "source": "pragma solidity ^0.4.23;\n\ncontract Uninitialized {\n\n    address public owner; // stored in Storage(cell 0), init with 0x00\n    uint public balance; // stored in Storage(cell 1), init with 0\n\n    struct Billy {\n        address where;\n    }\n\n    function rewriteOwner(address _where) public {\n        Billy tmp; // points to Storage(cell 0)\n        tmp.where = _where;\n    }\n\n    function rewriteBoth(bytes s) public {\n        uint[64] copy; // points to Storage(cell 0)\n        for(uint8 i = 0; i < 64; i++) {\n            copy[i] = uint8(s[i]);\n        }\n    }\n\n}",
  "sourcePath": "/var/www/html/truffle/ethsec/uninitialized-storage-pointer/contracts/Uninitialized.sol",
  "compiler": {
    "name": "solc",
    "version": "0.4.24+commit.e67f0147.Emscripten.clang"
  },
  "schemaVersion": "2.0.0",
  "updatedAt": "2018-06-08T10:55:42.256Z"
}