{
  "contractName": "ArrayLengthUnderflow",
  "abi": [
    {
      "constant": true,
      "inputs": [
        {
          "name": "",
          "type": "uint256"
        }
      ],
      "name": "array",
      "outputs": [
        {
          "name": "",
          "type": "uint256"
        }
      ],
      "payable": false,
      "stateMutability": "view",
      "type": "function"
    },
    {
      "constant": false,
      "inputs": [
        {
          "name": "index",
          "type": "uint256"
        }
      ],
      "name": "getHash",
      "outputs": [
        {
          "name": "",
          "type": "bytes32"
        }
      ],
      "payable": false,
      "stateMutability": "nonpayable",
      "type": "function"
    },
    {
      "constant": false,
      "inputs": [
        {
          "name": "index",
          "type": "uint256"
        },
        {
          "name": "value",
          "type": "uint256"
        }
      ],
      "name": "modify",
      "outputs": [],
      "payable": false,
      "stateMutability": "nonpayable",
      "type": "function"
    },
    {
      "constant": true,
      "inputs": [],
      "name": "owner",
      "outputs": [
        {
          "name": "",
          "type": "address"
        }
      ],
      "payable": false,
      "stateMutability": "view",
      "type": "function"
    },
    {
      "constant": false,
      "inputs": [],
      "name": "getLength",
      "outputs": [
        {
          "name": "",
          "type": "uint256"
        }
      ],
      "payable": false,
      "stateMutability": "nonpayable",
      "type": "function"
    },
    {
      "constant": false,
      "inputs": [],
      "name": "underflow",
      "outputs": [],
      "payable": false,
      "stateMutability": "nonpayable",
      "type": "function"
    },
    {
      "inputs": [],
      "payable": false,
      "stateMutability": "nonpayable",
      "type": "constructor"
    }
  ],
  "bytecode": "0x6060604052341561000f57600080fd5b33600160006101000a81548173ffffffffffffffffffffffffffffffffffffffff021916908373ffffffffffffffffffffffffffffffffffffffff16021790555060008054806001018281610064919061007f565b9160005260206000209001600060aa909190915055506100d0565b8154818355818115116100a6578183600052602060002091820191016100a591906100ab565b5b505050565b6100cd91905b808211156100c95760008160009055506001016100b1565b5090565b90565b6102df806100df6000396000f300606060405260043610610078576000357c0100000000000000000000000000000000000000000000000000000000900463ffffffff16806338d941931461007d5780636b2fafa9146100b457806385d05887146100f35780638da5cb5b1461011f578063be1c766b14610174578063dc75bec71461019d575b600080fd5b341561008857600080fd5b61009e60048080359060200190919050506101b2565b6040518082815260200191505060405180910390f35b34156100bf57600080fd5b6100d560048080359060200190919050506101d6565b60405180826000191660001916815260200191505060405180910390f35b34156100fe57600080fd5b61011d60048080359060200190919080359060200190919050506101f5565b005b341561012a57600080fd5b610132610218565b604051808273ffffffffffffffffffffffffffffffffffffffff1673ffffffffffffffffffffffffffffffffffffffff16815260200191505060405180910390f35b341561017f57600080fd5b61018761023e565b6040518082815260200191505060405180910390f35b34156101a857600080fd5b6101b061024a565b005b6000818154811015156101c157fe5b90600052602060002090016000915090505481565b6000816040518082815260200191505060405180910390209050919050565b8060008381548110151561020557fe5b9060005260206000209001819055505050565b600160009054906101000a900473ffffffffffffffffffffffffffffffffffffffff1681565b60008080549050905090565b600080548091906001900361025f9190610262565b50565b81548183558181151161028957818360005260206000209182019101610288919061028e565b5b505050565b6102b091905b808211156102ac576000816000905550600101610294565b5090565b905600a165627a7a72305820984348f0b3ed6b891c7d54fd79784997fbbe59aafdf7bfc47ef8051414c7e4400029",
  "source": "pragma solidity ^0.4.4;\n\ncontract ArrayLengthUnderflow {\n\n  uint[] public array;\n  address public owner;\n\n  function ArrayLengthUnderflow() {\n    owner = msg.sender;\n    array.push(0xaa);\n  }\n\n  function underflow() {\n    array.length--;\n  }\n\n  function modify(uint index, uint value) {\n    array[index] = value;\n  }\n\n  function getLength() returns (uint) {\n    return array.length;\n  }\n\n  function getHash(uint index) returns (bytes32) {\n    return keccak256(index);\n  }\n\n}\n",
  "sourcePath": "/var/www/html/truffle/ethsec/array-length-underflow/contracts/ArrayLengthUnderflow.sol",
  "compiler": {
    "name": "solc",
    "version": "0.4.18+commit.9cf6e910.Emscripten.clang"
  },
  "schemaVersion": "1.0.1",
  "updatedAt": "2018-02-04T23:38:26.132Z"
}