{
  "contractName": "DynamicTypesLength",
  "abi": [
    {
      "constant": true,
      "inputs": [
        {
          "name": "",
          "type": "uint256"
        }
      ],
      "name": "array",
      "outputs": [
        {
          "name": "",
          "type": "address"
        }
      ],
      "payable": false,
      "stateMutability": "view",
      "type": "function"
    },
    {
      "constant": true,
      "inputs": [],
      "name": "b",
      "outputs": [
        {
          "name": "",
          "type": "bytes"
        }
      ],
      "payable": false,
      "stateMutability": "view",
      "type": "function"
    },
    {
      "constant": true,
      "inputs": [],
      "name": "bLength",
      "outputs": [
        {
          "name": "",
          "type": "uint256"
        }
      ],
      "payable": false,
      "stateMutability": "view",
      "type": "function"
    },
    {
      "constant": false,
      "inputs": [
        {
          "name": "_str",
          "type": "string"
        },
        {
          "name": "_b",
          "type": "bytes"
        },
        {
          "name": "_array",
          "type": "address[]"
        }
      ],
      "name": "run",
      "outputs": [],
      "payable": false,
      "stateMutability": "nonpayable",
      "type": "function"
    },
    {
      "constant": true,
      "inputs": [],
      "name": "str",
      "outputs": [
        {
          "name": "",
          "type": "string"
        }
      ],
      "payable": false,
      "stateMutability": "view",
      "type": "function"
    },
    {
      "constant": true,
      "inputs": [],
      "name": "arrayLength",
      "outputs": [
        {
          "name": "",
          "type": "uint256"
        }
      ],
      "payable": false,
      "stateMutability": "view",
      "type": "function"
    },
    {
      "constant": true,
      "inputs": [],
      "name": "strLength",
      "outputs": [
        {
          "name": "",
          "type": "uint256"
        }
      ],
      "payable": false,
      "stateMutability": "view",
      "type": "function"
    }
  ],
  "bytecode": "0x6060604052341561000f57600080fd5b61076f8061001e6000396000f300606060405260043610610083576000357c0100000000000000000000000000000000000000000000000000000000900463ffffffff16806338d94193146100885780634df7e3d0146100eb5780638c59bac4146101795780639514514b146101a2578063c15bae8414610282578063e554482e14610310578063f395072514610339575b600080fd5b341561009357600080fd5b6100a96004808035906020019091905050610362565b604051808273ffffffffffffffffffffffffffffffffffffffff1673ffffffffffffffffffffffffffffffffffffffff16815260200191505060405180910390f35b34156100f657600080fd5b6100fe6103a1565b6040518080602001828103825283818151815260200191508051906020019080838360005b8381101561013e578082015181840152602081019050610123565b50505050905090810190601f16801561016b5780820380516001836020036101000a031916815260200191505b509250505060405180910390f35b341561018457600080fd5b61018c61043f565b6040518082815260200191505060405180910390f35b34156101ad57600080fd5b610280600480803590602001908201803590602001908080601f0160208091040260200160405190810160405280939291908181526020018383808284378201915050505050509190803590602001908201803590602001908080601f0160208091040260200160405190810160405280939291908181526020018383808284378201915050505050509190803590602001908201803590602001908080602002602001604051908101604052809392919081815260200183836020028082843782019150505050505091905050610445565b005b341561028d57600080fd5b6102956104a7565b6040518080602001828103825283818151815260200191508051906020019080838360005b838110156102d55780820151818401526020810190506102ba565b50505050905090810190601f1680156103025780820380516001836020036101000a031916815260200191505b509250505060405180910390f35b341561031b57600080fd5b610323610545565b6040518082815260200191505060405180910390f35b341561034457600080fd5b61034c61054b565b6040518082815260200191505060405180910390f35b60058181548110151561037157fe5b90600052602060002090016000915054906101000a900473ffffffffffffffffffffffffffffffffffffffff1681565b60048054600181600116156101000203166002900480601f0160208091040260200160405190810160405280929190818152602001828054600181600116156101000203166002900480156104375780601f1061040c57610100808354040283529160200191610437565b820191906000526020600020905b81548152906001019060200180831161041a57829003601f168201915b505050505081565b60015481565b82516000819055508260039080519060200190610463929190610551565b50815160018190555081600490805190602001906104829291906105d1565b50805160028190555080600590805190602001906104a1929190610651565b50505050565b60038054600181600116156101000203166002900480601f01602080910402602001604051908101604052809291908181526020018280546001816001161561010002031660029004801561053d5780601f106105125761010080835404028352916020019161053d565b820191906000526020600020905b81548152906001019060200180831161052057829003601f168201915b505050505081565b60025481565b60005481565b828054600181600116156101000203166002900490600052602060002090601f016020900481019282601f1061059257805160ff19168380011785556105c0565b828001600101855582156105c0579182015b828111156105bf5782518255916020019190600101906105a4565b5b5090506105cd91906106db565b5090565b828054600181600116156101000203166002900490600052602060002090601f016020900481019282601f1061061257805160ff1916838001178555610640565b82800160010185558215610640579182015b8281111561063f578251825591602001919060010190610624565b5b50905061064d91906106db565b5090565b8280548282559060005260206000209081019282156106ca579160200282015b828111156106c95782518260006101000a81548173ffffffffffffffffffffffffffffffffffffffff021916908373ffffffffffffffffffffffffffffffffffffffff16021790555091602001919060010190610671565b5b5090506106d79190610700565b5090565b6106fd91905b808211156106f95760008160009055506001016106e1565b5090565b90565b61074091905b8082111561073c57600081816101000a81549073ffffffffffffffffffffffffffffffffffffffff021916905550600101610706565b5090565b905600a165627a7a723058208a314b4c19e68ab0b92dff3d1196a1b9af8b85685f21bda1450beee91cb32df80029",
  "source": "pragma solidity ^0.4.4;\n\ncontract DynamicTypesLength {\n\n  uint public strLength;\n  uint public bLength;\n  uint public arrayLength;\n\n  string public str;\n  bytes public b;\n  address[] public array;\n\n  function run(string _str, bytes _b, address[] _array) {\n    strLength = bytes(_str).length;\n    str = _str;\n\n    bLength = _b.length;\n    b = _b;\n\n    arrayLength = _array.length;\n    array = _array;\n  }\n  \n}\n",
  "sourcePath": "/var/www/html/truffle/ethsec/dynamic-types-length/contracts/DynamicTypesLength.sol",
  "compiler": {
    "name": "solc",
    "version": "0.4.18+commit.9cf6e910.Emscripten.clang"
  },
  "schemaVersion": "1.0.1",
  "updatedAt": "2018-02-06T14:12:51.803Z"
}