{
  "contractName": "Overflow",
  "abi": [
    {
      "constant": false,
      "inputs": [],
      "name": "overflow",
      "outputs": [],
      "payable": false,
      "stateMutability": "nonpayable",
      "type": "function"
    },
    {
      "constant": true,
      "inputs": [],
      "name": "umax",
      "outputs": [
        {
          "name": "",
          "type": "uint256"
        }
      ],
      "payable": false,
      "stateMutability": "view",
      "type": "function"
    },
    {
      "constant": true,
      "inputs": [],
      "name": "umin",
      "outputs": [
        {
          "name": "",
          "type": "uint256"
        }
      ],
      "payable": false,
      "stateMutability": "view",
      "type": "function"
    },
    {
      "constant": false,
      "inputs": [],
      "name": "underflow",
      "outputs": [],
      "payable": false,
      "stateMutability": "nonpayable",
      "type": "function"
    }
  ],
  "bytecode": "0x60606040527fffffffffffffffffffffffffffffffffffffffffffffffffffffffffffffffff6000556000600155341561003857600080fd5b610142806100476000396000f300606060405260043610610061576000357c0100000000000000000000000000000000000000000000000000000000900463ffffffff1680624264c31461006657806337de961b1461007b578063c4af78ac146100a4578063dc75bec7146100cd575b600080fd5b341561007157600080fd5b6100796100e2565b005b341561008657600080fd5b61008e6100f5565b6040518082815260200191505060405180910390f35b34156100af57600080fd5b6100b76100fb565b6040518082815260200191505060405180910390f35b34156100d857600080fd5b6100e0610101565b005b6000808154809291906001019190505550565b60005481565b60015481565b600160008154809291906001900391905055505600a165627a7a723058201d5fde1cefc4cd37a0ec95d70511f2e50aef62f66b5f6ead0f3aa60ac60b52200029",
  "source": "pragma solidity ^0.4.4;\n\ncontract Overflow {\n\n  uint public umax = 2 ** 256 - 1;\n  uint public umin = 0;\n\n  function overflow() {\n    umax++;\n  }\n\n  function underflow() {\n    umin--;\n  }\n\n  // Overflow.deployed().then(function(instance){return instance.umax.call();}).then(function(value){return value.toNumber();});\n  // Overflow.deployed().then(function(instance){return instance.umin.call();}).then(function(value){return value.toNumber();});\n\n  // Overflow.deployed().then(function(instance){return instance.overflow();});\n  // Overflow.deployed().then(function(instance){return instance.underflow();});\n\n  // Overflow.deployed().then(function(instance){return instance.umax.call();}).then(function(value){return value.toNumber();});\n  // Overflow.deployed().then(function(instance){return instance.umin.call();}).then(function(value){return value.toNumber();});\n\n}\n",
  "sourcePath": "/var/www/html/truffle/ethsec/overflow/contracts/Overflow.sol",
  "compiler": {
    "name": "solc",
    "version": "0.4.18+commit.9cf6e910.Emscripten.clang"
  },
  "schemaVersion": "1.0.1",
  "updatedAt": "2018-02-03T14:38:10.137Z"
}